{
  "contractName": "RootChain",
  "abi": [
    {
      "constant": true,
      "inputs": [
        {
          "name": "",
          "type": "uint256"
        }
      ],
      "name": "exits",
      "outputs": [
        {
          "name": "owner",
          "type": "address"
        },
        {
          "name": "token",
          "type": "address"
        },
        {
          "name": "amount",
          "type": "uint256"
        }
      ],
      "payable": false,
      "stateMutability": "view",
      "type": "function"
    },
    {
      "constant": true,
      "inputs": [],
      "name": "childBlockInterval",
      "outputs": [
        {
          "name": "",
          "type": "uint256"
        }
      ],
      "payable": false,
      "stateMutability": "view",
      "type": "function"
    },
    {
      "constant": false,
      "inputs": [],
      "name": "renounceOwnership",
      "outputs": [],
      "payable": false,
      "stateMutability": "nonpayable",
      "type": "function"
    },
    {
      "constant": true,
      "inputs": [
        {
          "name": "",
          "type": "uint256"
        }
      ],
      "name": "childDepositBlock",
      "outputs": [
        {
          "name": "",
          "type": "uint256"
        }
      ],
      "payable": false,
      "stateMutability": "view",
      "type": "function"
    },
    {
      "constant": true,
      "inputs": [],
      "name": "currentChildBlock",
      "outputs": [
        {
          "name": "",
          "type": "uint256"
        }
      ],
      "payable": false,
      "stateMutability": "view",
      "type": "function"
    },
    {
      "constant": true,
      "inputs": [],
      "name": "owner",
      "outputs": [
        {
          "name": "",
          "type": "address"
        }
      ],
      "payable": false,
      "stateMutability": "view",
      "type": "function"
    },
    {
      "constant": true,
      "inputs": [],
      "name": "authority",
      "outputs": [
        {
          "name": "",
          "type": "address"
        }
      ],
      "payable": false,
      "stateMutability": "view",
      "type": "function"
    },
    {
      "constant": false,
      "inputs": [
        {
          "name": "_newOwner",
          "type": "address"
        }
      ],
      "name": "transferOwnership",
      "outputs": [],
      "payable": false,
      "stateMutability": "nonpayable",
      "type": "function"
    },
    {
      "constant": true,
      "inputs": [
        {
          "name": "",
          "type": "uint256"
        }
      ],
      "name": "childChain",
      "outputs": [
        {
          "name": "root",
          "type": "bytes32"
        },
        {
          "name": "created_at",
          "type": "uint256"
        }
      ],
      "payable": false,
      "stateMutability": "view",
      "type": "function"
    },
    {
      "inputs": [],
      "payable": false,
      "stateMutability": "nonpayable",
      "type": "constructor"
    },
    {
      "anonymous": false,
      "inputs": [
        {
          "indexed": true,
          "name": "depositor",
          "type": "address"
        },
        {
          "indexed": true,
          "name": "blockNumber",
          "type": "uint256"
        },
        {
          "indexed": true,
          "name": "depositBlock",
          "type": "uint256"
        },
        {
          "indexed": false,
          "name": "token",
          "type": "address"
        },
        {
          "indexed": false,
          "name": "amount",
          "type": "uint256"
        }
      ],
      "name": "Deposit",
      "type": "event"
    },
    {
      "anonymous": false,
      "inputs": [
        {
          "indexed": true,
          "name": "exitor",
          "type": "address"
        },
        {
          "indexed": true,
          "name": "blockNumber",
          "type": "uint256"
        },
        {
          "indexed": true,
          "name": "utxoPos",
          "type": "uint256"
        },
        {
          "indexed": false,
          "name": "token",
          "type": "address"
        },
        {
          "indexed": false,
          "name": "amount",
          "type": "uint256"
        }
      ],
      "name": "ExitStarted",
      "type": "event"
    },
    {
      "anonymous": false,
      "inputs": [
        {
          "indexed": true,
          "name": "challenger",
          "type": "address"
        },
        {
          "indexed": true,
          "name": "blockNumber",
          "type": "uint256"
        },
        {
          "indexed": true,
          "name": "cUtxoPos",
          "type": "uint256"
        },
        {
          "indexed": false,
          "name": "eUtxoPos",
          "type": "uint256"
        }
      ],
      "name": "ExitChallenged",
      "type": "event"
    },
    {
      "anonymous": false,
      "inputs": [
        {
          "indexed": true,
          "name": "exitor",
          "type": "address"
        },
        {
          "indexed": true,
          "name": "blockNumber",
          "type": "uint256"
        },
        {
          "indexed": true,
          "name": "utxoPos",
          "type": "uint256"
        },
        {
          "indexed": false,
          "name": "token",
          "type": "address"
        },
        {
          "indexed": false,
          "name": "amount",
          "type": "uint256"
        }
      ],
      "name": "ExitFinalized",
      "type": "event"
    },
    {
      "anonymous": false,
      "inputs": [
        {
          "indexed": false,
          "name": "sender",
          "type": "address"
        },
        {
          "indexed": false,
          "name": "exitor",
          "type": "address"
        }
      ],
      "name": "Debug",
      "type": "event"
    },
    {
      "anonymous": false,
      "inputs": [
        {
          "indexed": true,
          "name": "previousOwner",
          "type": "address"
        }
      ],
      "name": "OwnershipRenounced",
      "type": "event"
    },
    {
      "anonymous": false,
      "inputs": [
        {
          "indexed": true,
          "name": "previousOwner",
          "type": "address"
        },
        {
          "indexed": true,
          "name": "newOwner",
          "type": "address"
        }
      ],
      "name": "OwnershipTransferred",
      "type": "event"
    },
    {
      "constant": false,
      "inputs": [
        {
          "name": "_authority",
          "type": "address"
        }
      ],
      "name": "setAuthority",
      "outputs": [],
      "payable": false,
      "stateMutability": "nonpayable",
      "type": "function"
    },
    {
      "constant": false,
      "inputs": [
        {
          "name": "blkNum",
          "type": "uint256"
        },
        {
          "name": "root",
          "type": "bytes32"
        }
      ],
      "name": "submitBlock",
      "outputs": [],
      "payable": false,
      "stateMutability": "nonpayable",
      "type": "function"
    },
    {
      "constant": false,
      "inputs": [
        {
          "name": "token",
          "type": "address"
        },
        {
          "name": "amount",
          "type": "uint256"
        }
      ],
      "name": "deposit",
      "outputs": [],
      "payable": true,
      "stateMutability": "payable",
      "type": "function"
    },
    {
      "constant": false,
      "inputs": [
        {
          "name": "blkNum",
          "type": "uint256"
        },
        {
          "name": "token",
          "type": "address"
        },
        {
          "name": "amount",
          "type": "uint256"
        }
      ],
      "name": "deposit",
      "outputs": [],
      "payable": true,
      "stateMutability": "payable",
      "type": "function"
    },
    {
      "constant": false,
      "inputs": [
        {
          "name": "utxoPos",
          "type": "uint256"
        },
        {
          "name": "txBytes",
          "type": "bytes"
        },
        {
          "name": "proof",
          "type": "bytes"
        },
        {
          "name": "sigs",
          "type": "bytes"
        }
      ],
      "name": "startExit",
      "outputs": [
        {
          "name": "eUtxoPos",
          "type": "uint256"
        }
      ],
      "payable": false,
      "stateMutability": "nonpayable",
      "type": "function"
    },
    {
      "constant": false,
      "inputs": [
        {
          "name": "cUtxoPos",
          "type": "uint256"
        },
        {
          "name": "eUtxoPos",
          "type": "uint256"
        },
        {
          "name": "txBytes",
          "type": "bytes"
        },
        {
          "name": "proof",
          "type": "bytes"
        },
        {
          "name": "sigs",
          "type": "bytes"
        },
        {
          "name": "confirmationSig",
          "type": "bytes"
        }
      ],
      "name": "challengeExit",
      "outputs": [
        {
          "name": "success",
          "type": "bool"
        }
      ],
      "payable": false,
      "stateMutability": "nonpayable",
      "type": "function"
    },
    {
      "constant": false,
      "inputs": [],
      "name": "finalizeExits",
      "outputs": [],
      "payable": false,
      "stateMutability": "nonpayable",
      "type": "function"
    },
    {
      "constant": true,
      "inputs": [
        {
          "name": "blockNumber",
          "type": "uint256"
        }
      ],
      "name": "getChildChain",
      "outputs": [
        {
          "name": "",
          "type": "bytes32"
        },
        {
          "name": "",
          "type": "uint256"
        }
      ],
      "payable": false,
      "stateMutability": "view",
      "type": "function"
    },
    {
      "constant": true,
      "inputs": [],
      "name": "getLastestSubmittedChildBlock",
      "outputs": [
        {
          "name": "",
          "type": "uint256"
        }
      ],
      "payable": false,
      "stateMutability": "view",
      "type": "function"
    },
    {
      "constant": true,
      "inputs": [],
      "name": "getCurrentChildBlock",
      "outputs": [
        {
          "name": "",
          "type": "uint256"
        }
      ],
      "payable": false,
      "stateMutability": "view",
      "type": "function"
    },
    {
      "constant": true,
      "inputs": [
        {
          "name": "utxoPos",
          "type": "uint256"
        }
      ],
      "name": "getExit",
      "outputs": [
        {
          "name": "",
          "type": "address"
        },
        {
          "name": "",
          "type": "uint256"
        }
      ],
      "payable": false,
      "stateMutability": "view",
      "type": "function"
    },
    {
      "constant": true,
      "inputs": [],
      "name": "getNextExit",
      "outputs": [
        {
          "name": "",
          "type": "uint256"
        },
        {
          "name": "",
          "type": "uint256"
        }
      ],
      "payable": false,
      "stateMutability": "view",
      "type": "function"
    },
    {
      "constant": true,
      "inputs": [],
      "name": "isFinalizable",
      "outputs": [
        {
          "name": "",
          "type": "bool"
        }
      ],
      "payable": false,
      "stateMutability": "view",
      "type": "function"
    }
  ],
  "bytecode": "0x60806040523480156200001157600080fd5b50336000806101000a81548173ffffffffffffffffffffffffffffffffffffffff021916908373ffffffffffffffffffffffffffffffffffffffff16021790555033600460006101000a81548173ffffffffffffffffffffffffffffffffffffffff021916908373ffffffffffffffffffffffffffffffffffffffff160217905550620186a0600781905550600754600681905550620000b062000114565b604051809103906000f080158015620000cd573d6000803e3d6000fd5b50600360006101000a81548173ffffffffffffffffffffffffffffffffffffffff021916908373ffffffffffffffffffffffffffffffffffffffff16021790555062000125565b60405161083b8062003d9d83390190565b613c6880620001356000396000f300608060405260043610610128576000357c0100000000000000000000000000000000000000000000000000000000900463ffffffff168063149be19f1461012d5780631c91a6b9146101685780632fd56a251461027b57806332773ba3146102ad578063342de1791461041457806338a9e0bc146104bb57806340f447a8146104e657806347e7ef2414610511578063715018a61461055157806378411627146105685780637a95f1e8146105a95780637a9e5e4b146105d457806385444de31461061757806387793d1e146106675780638da5cb5b14610696578063bac355a0146106ed578063bc157ac114610718578063bf7e214f14610762578063c6ab44cd146107b9578063e60f1ff1146107d0578063f2fde38b14610844578063f95643b114610887575b600080fd5b34801561013957600080fd5b506101666004803603810190808035906020019092919080356000191690602001909291905050506108d7565b005b34801561017457600080fd5b5061026560048036038101908080359060200190929190803590602001908201803590602001908080601f0160208091040260200160405190810160405280939291908181526020018383808284378201915050505050509192919290803590602001908201803590602001908080601f0160208091040260200160405190810160405280939291908181526020018383808284378201915050505050509192919290803590602001908201803590602001908080601f0160208091040260200160405190810160405280939291908181526020018383808284378201915050505050509192919290505050610aab565b6040518082815260200191505060405180910390f35b34801561028757600080fd5b506102906110f2565b604051808381526020018281526020019250505060405180910390f35b3480156102b957600080fd5b506103fa6004803603810190808035906020019092919080359060200190929190803590602001908201803590602001908080601f0160208091040260200160405190810160405280939291908181526020018383808284378201915050505050509192919290803590602001908201803590602001908080601f0160208091040260200160405190810160405280939291908181526020018383808284378201915050505050509192919290803590602001908201803590602001908080601f0160208091040260200160405190810160405280939291908181526020018383808284378201915050505050509192919290803590602001908201803590602001908080601f01602080910402602001604051908101604052809392919081815260200183838082843782019150505050505091929192905050506111ea565b604051808215151515815260200191505060405180910390f35b34801561042057600080fd5b5061043f600480360381019080803590602001909291905050506117b0565b604051808473ffffffffffffffffffffffffffffffffffffffff1673ffffffffffffffffffffffffffffffffffffffff1681526020018373ffffffffffffffffffffffffffffffffffffffff1673ffffffffffffffffffffffffffffffffffffffff168152602001828152602001935050505060405180910390f35b3480156104c757600080fd5b506104d061181a565b6040518082815260200191505060405180910390f35b3480156104f257600080fd5b506104fb611820565b6040518082815260200191505060405180910390f35b61054f600480360381019080803573ffffffffffffffffffffffffffffffffffffffff1690602001909291908035906020019092919050505061182a565b005b34801561055d57600080fd5b50610566611840565b005b34801561057457600080fd5b5061059360048036038101908080359060200190929190505050611942565b6040518082815260200191505060405180910390f35b3480156105b557600080fd5b506105be61195a565b6040518082815260200191505060405180910390f35b3480156105e057600080fd5b50610615600480360381019080803573ffffffffffffffffffffffffffffffffffffffff169060200190929190505050611960565b005b34801561062357600080fd5b5061064260048036038101908080359060200190929190505050611a00565b6040518083600019166000191681526020018281526020019250505060405180910390f35b34801561067357600080fd5b5061067c611a3a565b604051808215151515815260200191505060405180910390f35b3480156106a257600080fd5b506106ab611b25565b604051808273ffffffffffffffffffffffffffffffffffffffff1673ffffffffffffffffffffffffffffffffffffffff16815260200191505060405180910390f35b3480156106f957600080fd5b50610702611b4a565b6040518082815260200191505060405180910390f35b61076060048036038101908080359060200190929190803573ffffffffffffffffffffffffffffffffffffffff16906020019092919080359060200190929190505050611b68565b005b34801561076e57600080fd5b50610777611fbb565b604051808273ffffffffffffffffffffffffffffffffffffffff1673ffffffffffffffffffffffffffffffffffffffff16815260200191505060405180910390f35b3480156107c557600080fd5b506107ce611fe1565b005b3480156107dc57600080fd5b506107fb600480360381019080803590602001909291905050506125f5565b604051808373ffffffffffffffffffffffffffffffffffffffff1673ffffffffffffffffffffffffffffffffffffffff1681526020018281526020019250505060405180910390f35b34801561085057600080fd5b50610885600480360381019080803573ffffffffffffffffffffffffffffffffffffffff16906020019092919050505061264f565b005b34801561089357600080fd5b506108b2600480360381019080803590602001909291905050506126b6565b6040518083600019166000191681526020018281526020019250505060405180910390f35b600460009054906101000a900473ffffffffffffffffffffffffffffffffffffffff1673ffffffffffffffffffffffffffffffffffffffff163373ffffffffffffffffffffffffffffffffffffffff1614151561093357600080fd5b60006001026001600084815260200190815260200160002060000154600019161415156109c8576040517f08c379a00000000000000000000000000000000000000000000000000000000081526004018080602001828103825260118152602001807f616c7265616479207375626d697474656400000000000000000000000000000081525060200191505060405180910390fd5b81600654141515610a41576040517f08c379a00000000000000000000000000000000000000000000000000000000081526004018080602001828103825260128152602001807f7375626d69742077726f6e6720626c6f636b000000000000000000000000000081525060200191505060405180910390fd5b60408051908101604052808260001916815260200142815250600160008481526020019081526020016000206000820151816000019060001916905560208201518160010155905050610aa16007546006546126da90919063ffffffff16565b6006819055505050565b60008060008060606000806000806000633b9aca008e811515610aca57fe5b049850612710633b9aca008f811515610adf57fe5b06811515610ae957fe5b0497506127108802633b9aca008a028f03039650610b0e610b098e6126f8565b612753565b9550600c8651141515610b2057600080fd5b610b468660028902600601815181101515610b3757fe5b90602001906020020151612810565b9450610b6986600b815181101515610b5a57fe5b90602001906020020151612810565b9350610b918660028902600701815181101515610b8257fe5b90602001906020020151612857565b610bc057610bbb8660028902600701815181101515610bac57fe5b9060200190602002015161289a565b610bc3565b60005b9250610be6866003815181101515610bd757fe5b90602001906020020151612857565b610c1057610c0b866003815181101515610bfc57fe5b9060200190602002015161289a565b610c13565b60005b610c34876000815181101515610c2557fe5b90602001906020020151612857565b610c5e57610c59876000815181101515610c4a57fe5b9060200190602002015161289a565b610c61565b60005b0291507f385e2c488cb7a2bbc3ef9e47bd11723c0a929dd6c7d11b5a92dda7e6eece33323386604051808373ffffffffffffffffffffffffffffffffffffffff1673ffffffffffffffffffffffffffffffffffffffff1681526020018273ffffffffffffffffffffffffffffffffffffffff1673ffffffffffffffffffffffffffffffffffffffff1681526020019250505060405180910390a18473ffffffffffffffffffffffffffffffffffffffff163373ffffffffffffffffffffffffffffffffffffffff161480610d8157506000809054906101000a900473ffffffffffffffffffffffffffffffffffffffff1673ffffffffffffffffffffffffffffffffffffffff163373ffffffffffffffffffffffffffffffffffffffff16145b1515610e1b576040517f08c379a000000000000000000000000000000000000000000000000000000000815260040180806020018281038252603d8152602001807f73656e64657220616e6420657869746f7220617265206e6f742074686520736181526020017f6d65206f722073656e646572206973206e6f7420746865206f776e657200000081525060400191505060405180910390fd5b8c6040518082805190602001908083835b602083101515610e515780518252602082019150602081019050602083039250610e2c565b6001836020036101000a0380198251168184511680821785525050505050509050019150506040518091039020610e8b8c600060826128ed565b60405180836000191660001916815260200182805190602001908083835b602083101515610ece5780518252602082019150602081019050602083039250610ea9565b6001836020036101000a0380198251168184511680821785525050505050509050019250505060405180910390209050610fa48d6040518082805190602001908083835b602083101515610f375780518252602082019150602081019050602083039250610f12565b6001836020036101000a0380198251168184511680821785525050505050509050019150506040518091039020600160008c815260200190815260200160002060000154848e6000809054906101000a900473ffffffffffffffffffffffffffffffffffffffff1661297a565b1515611018576040517f08c379a00000000000000000000000000000000000000000000000000000000081526004018080602001828103825260148152602001807f7369676e617475726520697320696e76616c696400000000000000000000000081525060200191505060405180910390fd5b611047600160008b8152602001908152602001600020600001548d8360001916612e5e9092919063ffffffff16565b15156110bb576040517f08c379a00000000000000000000000000000000000000000000000000000000081526004018080602001828103825260108152602001807f70726f6f6620697320696e76616c69640000000000000000000000000000000081525060200191505060405180910390fd5b6110de8e868686600160008f815260200190815260200160002060010154612faa565b8d9950505050505050505050949350505050565b6000806000806000600360009054906101000a900473ffffffffffffffffffffffffffffffffffffffff1673ffffffffffffffffffffffffffffffffffffffff1663d6362e976040518163ffffffff167c0100000000000000000000000000000000000000000000000000000000028152600401602060405180830381600087803b15801561118057600080fd5b505af1158015611194573d6000803e3d6000fd5b505050506040513d60208110156111aa57600080fd5b81019080805190602001909291905050509250826fffffffffffffffffffffffffffffffff1691506080839060020a900490508181945094505050509091565b6000806000806000806060612710633b9aca008e81151561120757fe5b0681151561121157fe5b04955060016000633b9aca008f81151561122757fe5b0481526020019081526020016000206000015494508a6040518082805190602001908083835b602083101515611272578051825260208201915060208101905060208303925061124d565b6001836020036101000a03801982511681845116808217855250505050505090500191505060405180910390209350838560405180836000191660001916815260200182600019166000191681526020019250505060405180910390209250836112df8a600060826128ed565b60405180836000191660001916815260200182805190602001908083835b60208310151561132257805182526020820191506020810190506020830392506112fd565b6001836020036101000a03801982511681845116808217855250505050505090500192505050604051809103902091506113836113666113618d6126f8565b612753565b600b81518110151561137457fe5b90602001906020020151612810565b73ffffffffffffffffffffffffffffffffffffffff16600260008e815260200190815260200160002060010160009054906101000a900473ffffffffffffffffffffffffffffffffffffffff1673ffffffffffffffffffffffffffffffffffffffff1614151561145b576040517f08c379a00000000000000000000000000000000000000000000000000000000081526004018080602001828103825260178152602001807f746f6b656e7320617265206e6f74207468652073616d6500000000000000000081525060200191505060405180910390fd5b6040805190810160405280601c81526020017f19457468657265756d205369676e6564204d6573736167653a0a333200000000815250905061150f81846040518083805190602001908083835b6020831015156114cd57805182526020820191506020810190506020830392506114a8565b6001836020036101000a038019825116818451168082178552505050505050905001826000191660001916815260200192505050604051809103902089613236565b73ffffffffffffffffffffffffffffffffffffffff16600260008e815260200190815260200160002060000160009054906101000a900473ffffffffffffffffffffffffffffffffffffffff1673ffffffffffffffffffffffffffffffffffffffff1614151561160d576040517f08c379a00000000000000000000000000000000000000000000000000000000081526004018080602001828103825260218152602001807f74686973207478206973206e6f74207370656e7420627920746865206f776e6581526020017f720000000000000000000000000000000000000000000000000000000000000081525060400191505060405180910390fd5b611626858b8460001916612e5e9092919063ffffffff16565b15156116c0576040517f08c379a000000000000000000000000000000000000000000000000000000000815260040180806020018281038252602d8152602001807f74686973207478206973206e6f7420696e636c75646520696e2074686520737581526020017f626d697474656420626c6f636b0000000000000000000000000000000000000081525060400191505060405180910390fd5b6116ca8b8d61332e565b1561179b57600260008d8152602001908152602001600020600080820160006101000a81549073ffffffffffffffffffffffffffffffffffffffff02191690556001820160006101000a81549073ffffffffffffffffffffffffffffffffffffffff0219169055600282016000905550508c611744611b4a565b3373ffffffffffffffffffffffffffffffffffffffff167fbc6bedf254cc75b52ca34ac1508d51308d605bc1ca88c1bd8c2630f6b17952838f6040518082815260200191505060405180910390a4600196506117a0565b600096505b5050505050509695505050505050565b60026020528060005260406000206000915090508060000160009054906101000a900473ffffffffffffffffffffffffffffffffffffffff16908060010160009054906101000a900473ffffffffffffffffffffffffffffffffffffffff16908060020154905083565b60075481565b6000600654905090565b61183c611835611b4a565b8383611b68565b5050565b6000809054906101000a900473ffffffffffffffffffffffffffffffffffffffff1673ffffffffffffffffffffffffffffffffffffffff163373ffffffffffffffffffffffffffffffffffffffff1614151561189b57600080fd5b6000809054906101000a900473ffffffffffffffffffffffffffffffffffffffff1673ffffffffffffffffffffffffffffffffffffffff167ff8df31144d9c2f0f6b59d69b8b98abd5459d07f2742c4df920b25aae33c6482060405160405180910390a260008060006101000a81548173ffffffffffffffffffffffffffffffffffffffff021916908373ffffffffffffffffffffffffffffffffffffffff160217905550565b60056020528060005260406000206000915090505481565b60065481565b600460009054906101000a900473ffffffffffffffffffffffffffffffffffffffff1673ffffffffffffffffffffffffffffffffffffffff163373ffffffffffffffffffffffffffffffffffffffff161415156119bc57600080fd5b80600460006101000a81548173ffffffffffffffffffffffffffffffffffffffff021916908373ffffffffffffffffffffffffffffffffffffffff16021790555050565b6000806001600084815260200190815260200160002060000154600160008581526020019081526020016000206001015491509150915091565b6000806000611a476110f2565b80925081935050504281108015611b1e57506000600360009054906101000a900473ffffffffffffffffffffffffffffffffffffffff1673ffffffffffffffffffffffffffffffffffffffff1663bda1504b6040518163ffffffff167c0100000000000000000000000000000000000000000000000000000000028152600401602060405180830381600087803b158015611ae157600080fd5b505af1158015611af5573d6000803e3d6000fd5b505050506040513d6020811015611b0b57600080fd5b8101908080519060200190929190505050115b9250505090565b6000809054906101000a900473ffffffffffffffffffffffffffffffffffffffff1681565b6000611b636007546006546134f990919063ffffffff16565b905090565b60008060008060075487811515611b7b57fe5b06141515611c17576040517f08c379a00000000000000000000000000000000000000000000000000000000081526004018080602001828103825260218152602001807f626c6f636b4e756d6265722068617320746f20656e642077697468203030303081526020017f300000000000000000000000000000000000000000000000000000000000000081525060400191505060405180910390fd5b600754600654038610151515611cbb576040517f08c379a00000000000000000000000000000000000000000000000000000000081526004018080602001828103825260368152602001807f626c6b4e756d2069732067726561746572207468616e206f7220657175616c2081526020017f746f2063757272656e74206368696c6420626c6f636b0000000000000000000081525060400191505060405180910390fd5b600060056000888152602001908152602001600020541415611cf157600160056000888152602001908152602001600020819055505b6005600087815260200190815260200160002054925060075483101515611d1757600080fd5b600073ffffffffffffffffffffffffffffffffffffffff168573ffffffffffffffffffffffffffffffffffffffff161415611dc8578334141515611dc3576040517f08c379a00000000000000000000000000000000000000000000000000000000081526004018080602001828103825260118152602001807f6d69736d6174636820696e2076616c756500000000000000000000000000000081525060200191505060405180910390fd5b611df6565b611df53330868873ffffffffffffffffffffffffffffffffffffffff16613512909392919063ffffffff16565b5b338585604051808473ffffffffffffffffffffffffffffffffffffffff1673ffffffffffffffffffffffffffffffffffffffff166c010000000000000000000000000281526014018373ffffffffffffffffffffffffffffffffffffffff1673ffffffffffffffffffffffffffffffffffffffff166c01000000000000000000000000028152601401828152602001935050505060405180910390209150611ea783876126da90919063ffffffff16565b905060408051908101604052808360001916815260200142815250600160008381526020019081526020016000206000820151816000019060001916905560208201518160010155905050611f19600160056000898152602001908152602001600020546126da90919063ffffffff16565b600560008881526020019081526020016000208190555080863373ffffffffffffffffffffffffffffffffffffffff167eab9ea1934a18c419ebd648dfd54350d24ab746230b97428774bd8d923f4eaf8888604051808373ffffffffffffffffffffffffffffffffffffffff1673ffffffffffffffffffffffffffffffffffffffff1681526020018281526020019250505060405180910390a4505050505050565b600460009054906101000a900473ffffffffffffffffffffffffffffffffffffffff1681565b600080611fec613b99565b6000611ff66110f2565b809450819550505060026000858152602001908152602001600020606060405190810160405290816000820160009054906101000a900473ffffffffffffffffffffffffffffffffffffffff1673ffffffffffffffffffffffffffffffffffffffff1673ffffffffffffffffffffffffffffffffffffffff1681526020016001820160009054906101000a900473ffffffffffffffffffffffffffffffffffffffff1673ffffffffffffffffffffffffffffffffffffffff1673ffffffffffffffffffffffffffffffffffffffff16815260200160028201548152505091505b42831080156121a557506000600360009054906101000a900473ffffffffffffffffffffffffffffffffffffffff1673ffffffffffffffffffffffffffffffffffffffff1663bda1504b6040518163ffffffff167c0100000000000000000000000000000000000000000000000000000000028152600401602060405180830381600087803b15801561216857600080fd5b505af115801561217c573d6000803e3d6000fd5b505050506040513d602081101561219257600080fd5b8101908080519060200190929190505050115b156125ee5760026000858152602001908152602001600020606060405190810160405290816000820160009054906101000a900473ffffffffffffffffffffffffffffffffffffffff1673ffffffffffffffffffffffffffffffffffffffff1673ffffffffffffffffffffffffffffffffffffffff1681526020016001820160009054906101000a900473ffffffffffffffffffffffffffffffffffffffff1673ffffffffffffffffffffffffffffffffffffffff1673ffffffffffffffffffffffffffffffffffffffff168152602001600282015481525050915081602001519050600073ffffffffffffffffffffffffffffffffffffffff168173ffffffffffffffffffffffffffffffffffffffff16141561231157816000015173ffffffffffffffffffffffffffffffffffffffff166108fc83604001519081150290604051600060405180830381858888f1935050505015801561230b573d6000803e3d6000fd5b50612345565b612344826000015183604001518373ffffffffffffffffffffffffffffffffffffffff166136359092919063ffffffff16565b5b600360009054906101000a900473ffffffffffffffffffffffffffffffffffffffff1673ffffffffffffffffffffffffffffffffffffffff1663b07576ac6040518163ffffffff167c0100000000000000000000000000000000000000000000000000000000028152600401602060405180830381600087803b1580156123cb57600080fd5b505af11580156123df573d6000803e3d6000fd5b505050506040513d60208110156123f557600080fd5b81019080805190602001909291905050505060026000858152602001908152602001600020600080820160006101000a81549073ffffffffffffffffffffffffffffffffffffffff02191690556001820160006101000a81549073ffffffffffffffffffffffffffffffffffffffff0219169055600282016000905550508361247c611b4a565b836000015173ffffffffffffffffffffffffffffffffffffffff167fa64a829ab53cd78afd8befe597af434cf15e8e33f3fac754ae69b5c74d7a4a18848660400151604051808373ffffffffffffffffffffffffffffffffffffffff1673ffffffffffffffffffffffffffffffffffffffff1681526020018281526020019250505060405180910390a46000600360009054906101000a900473ffffffffffffffffffffffffffffffffffffffff1673ffffffffffffffffffffffffffffffffffffffff1663bda1504b6040518163ffffffff167c0100000000000000000000000000000000000000000000000000000000028152600401602060405180830381600087803b15801561258e57600080fd5b505af11580156125a2573d6000803e3d6000fd5b505050506040513d60208110156125b857600080fd5b810190808051906020019092919050505011156125e4576125d76110f2565b80945081955050506125e9565b6125ef565b6120d6565b5b50505050565b6000806002600084815260200190815260200160002060000160009054906101000a900473ffffffffffffffffffffffffffffffffffffffff16600260008581526020019081526020016000206002015491509150915091565b6000809054906101000a900473ffffffffffffffffffffffffffffffffffffffff1673ffffffffffffffffffffffffffffffffffffffff163373ffffffffffffffffffffffffffffffffffffffff161415156126aa57600080fd5b6126b381613723565b50565b60016020528060005260406000206000915090508060000154908060010154905082565b60008082840190508381101515156126ee57fe5b8091505092915050565b612700613be7565b60008083519150600082141561272e576040805190810160405280600081526020016000815250925061274c565b60208401905060408051908101604052808281526020018381525092505b5050919050565b6060600061275f613c01565b600061276a8561381d565b151561277557600080fd5b61277e8561384f565b9250826040519080825280602002602001820160405280156127ba57816020015b6127a7613c22565b81526020019060019003908161279f5790505b5093506127c6856138c9565b91505b6127d282613911565b15612808576127e08261393b565b84828151811015156127ee57fe5b9060200190602002018190525080806001019150506127c9565b505050919050565b600080600061281e84613997565b151561282957600080fd5b612832846139c8565b9150915060148114151561284557600080fd5b600c6101000a82510492505050919050565b600080600061286584613a49565b156128735760009250612893565b83600001519050805160001a91506080821480612890575060c082145b92505b5050919050565b60008060006128a884613997565b15156128b357600080fd5b6128bc846139c8565b9150915060208111806128cf5750600081145b156128d957600080fd5b806020036101000a82510492505050919050565b60608082840185511015151561290257600080fd5b82156000811461291d5760405191506020820160405261296e565b6040519150601f8416801560200281840101858101878315602002848b0101015b8183101561295b578051835260208301925060208101905061293e565b50868552601f19601f8301166040525050505b50809150509392505050565b6000806000606060006041875181151561299057fe5b061480156129a15750610104865111155b15156129ac57600080fd5b60019250600191506040805190810160405280601c81526020017f19457468657265756d205369676e6564204d6573736167653a0a3332000000008152509050612aa1818a8a60405180836000191660001916815260200182600019166000191681526020019250505060405180910390206040518083805190602001908083835b602083101515612a535780518252602082019150602081019050602083039250612a2e565b6001836020036101000a0380198251168184511680821785525050505050509050018260001916600019168152602001925050506040518091039020612a9c88608260416128ed565b613236565b73ffffffffffffffffffffffffffffffffffffffff16612b3f828b6040518083805190602001908083835b602083101515612af15780518252602082019150602081019050602083039250612acc565b6001836020036101000a0380198251168184511680821785525050505050509050018260001916600019168152602001925050506040518091039020612b3a89600060416128ed565b613236565b73ffffffffffffffffffffffffffffffffffffffff161480612c135750612be4818a6040518083805190602001908083835b602083101515612b965780518252602082019150602081019050602083039250612b71565b6001836020036101000a0380198251168184511680821785525050505050509050018260001916600019168152602001925050506040518091039020612bdf88600060416128ed565b613236565b73ffffffffffffffffffffffffffffffffffffffff168573ffffffffffffffffffffffffffffffffffffffff16145b92506000871115612e4657612cd3818a8a60405180836000191660001916815260200182600019166000191681526020019250505060405180910390206040518083805190602001908083835b602083101515612c855780518252602082019150602081019050602083039250612c60565b6001836020036101000a0380198251168184511680821785525050505050509050018260001916600019168152602001925050506040518091039020612cce8860c360416128ed565b613236565b73ffffffffffffffffffffffffffffffffffffffff16612d70828b6040518083805190602001908083835b602083101515612d235780518252602082019150602081019050602083039250612cfe565b6001836020036101000a0380198251168184511680821785525050505050509050018260001916600019168152602001925050506040518091039020612d6b896041806128ed565b613236565b73ffffffffffffffffffffffffffffffffffffffff161480612e435750612e14818a6040518083805190602001908083835b602083101515612dc75780518252602082019150602081019050602083039250612da2565b6001836020036101000a0380198251168184511680821785525050505050509050018260001916600019168152602001925050506040518091039020612e0f886041806128ed565b613236565b73ffffffffffffffffffffffffffffffffffffffff168573ffffffffffffffffffffffffffffffffffffffff16145b91505b828015612e505750815b935050505095945050505050565b6000806000806000879350602092505b8551831015612f925782860151915060018387010151905060007f010000000000000000000000000000000000000000000000000000000000000002827effffffffffffffffffffffffffffffffffffffffffffffffffffffffffffff19161415612f0857808460405180836000191660001916815260200182600019166000191681526020019250505060405180910390209350612f87565b60017f010000000000000000000000000000000000000000000000000000000000000002827effffffffffffffffffffffffffffffffffffffffffffffffffffffffffffff19161415612f86578381604051808360001916600019168152602001826000191660001916815260200192505050604051809103902093505b5b602183019250612e6e565b86600019168460001916149450505050509392505050565b600080612fc162127500840162093a804201613a59565b9150866080839060020a02179050600084111515612fde57600080fd5b6000600260008981526020019081526020016000206002015414151561300357600080fd5b600360009054906101000a900473ffffffffffffffffffffffffffffffffffffffff1673ffffffffffffffffffffffffffffffffffffffff166390b5561d826040518263ffffffff167c010000000000000000000000000000000000000000000000000000000002815260040180828152602001915050600060405180830381600087803b15801561309457600080fd5b505af11580156130a8573d6000803e3d6000fd5b505050506060604051908101604052808773ffffffffffffffffffffffffffffffffffffffff1681526020018673ffffffffffffffffffffffffffffffffffffffff168152602001858152506002600089815260200190815260200160002060008201518160000160006101000a81548173ffffffffffffffffffffffffffffffffffffffff021916908373ffffffffffffffffffffffffffffffffffffffff16021790555060208201518160010160006101000a81548173ffffffffffffffffffffffffffffffffffffffff021916908373ffffffffffffffffffffffffffffffffffffffff16021790555060408201518160020155905050866131ab611b4a565b3373ffffffffffffffffffffffffffffffffffffffff167f72a4548861e081720d83ac70e5e717c7cc5e875e6aa00e39cfc50c71b80a90c38888604051808373ffffffffffffffffffffffffffffffffffffffff1673ffffffffffffffffffffffffffffffffffffffff1681526020018281526020019250505060405180910390a450505050505050565b600080600080604185511415156132505760009350613325565b6020850151925060408501519150606085015160001a9050601b8160ff16101561327b57601b810190505b601b8160ff16141580156132935750601c8160ff1614155b156132a15760009350613325565b600186828585604051600081526020016040526040518085600019166000191681526020018460ff1660ff1681526020018360001916600019168152602001826000191660001916815260200194505050505060206040516020810390808403906000865af1158015613318573d6000803e3d6000fd5b5050506020604051035193505b50505092915050565b6000806000806060600080600080633b9aca008a81151561334b57fe5b049750612710633b9aca008b81151561336057fe5b0681151561336a57fe5b0496506127108702633b9aca0089028b0303955061338f61338a8c6126f8565b612753565b9450600c85511415156133a157600080fd5b600093505b60028410156134e6576133d285856003028151811015156133c357fe5b90602001906020020151612857565b15156134d9576133fb85856003028151811015156133ec57fe5b9060200190602002015161289a565b9250613423856001866003020181518110151561341457fe5b90602001906020020151612857565b6134525761344d856001866003020181518110151561343e57fe5b9060200190602002015161289a565b613455565b60005b915061347d856002866003020181518110151561346e57fe5b90602001906020020151612857565b6134ac576134a7856002866003020181518110151561349857fe5b9060200190602002015161289a565b6134af565b60005b905082881480156134bf57508187145b80156134ca57508086145b156134d857600198506134eb565b5b83806001019450506133a6565b600098505b505050505050505092915050565b600082821115151561350757fe5b818303905092915050565b8373ffffffffffffffffffffffffffffffffffffffff166323b872dd8484846040518463ffffffff167c0100000000000000000000000000000000000000000000000000000000028152600401808473ffffffffffffffffffffffffffffffffffffffff1673ffffffffffffffffffffffffffffffffffffffff1681526020018373ffffffffffffffffffffffffffffffffffffffff1673ffffffffffffffffffffffffffffffffffffffff1681526020018281526020019350505050602060405180830381600087803b1580156135e957600080fd5b505af11580156135fd573d6000803e3d6000fd5b505050506040513d602081101561361357600080fd5b8101908080519060200190929190505050151561362f57600080fd5b50505050565b8273ffffffffffffffffffffffffffffffffffffffff1663a9059cbb83836040518363ffffffff167c0100000000000000000000000000000000000000000000000000000000028152600401808373ffffffffffffffffffffffffffffffffffffffff1673ffffffffffffffffffffffffffffffffffffffff16815260200182815260200192505050602060405180830381600087803b1580156136d857600080fd5b505af11580156136ec573d6000803e3d6000fd5b505050506040513d602081101561370257600080fd5b8101908080519060200190929190505050151561371e57600080fd5b505050565b600073ffffffffffffffffffffffffffffffffffffffff168173ffffffffffffffffffffffffffffffffffffffff161415151561375f57600080fd5b8073ffffffffffffffffffffffffffffffffffffffff166000809054906101000a900473ffffffffffffffffffffffffffffffffffffffff1673ffffffffffffffffffffffffffffffffffffffff167f8be0079c531659141344cd1fd0a4f28419497f9722a3daafe3b4186f6b6457e060405160405180910390a3806000806101000a81548173ffffffffffffffffffffffffffffffffffffffff021916908373ffffffffffffffffffffffffffffffffffffffff16021790555050565b6000806000836020015114156138365760009150613849565b8260000151905060c0815160001a101591505b50919050565b6000806000806000806138618761381d565b151561387057600095506138bf565b86600001519350835160001a945061388787613a73565b840192506001876020015185010391505b81831115156138bb576138aa83613aff565b830192508080600101915050613898565b8095505b5050505050919050565b6138d1613c01565b60006138dc8361381d565b15156138e757600080fd5b6138f083613a73565b83600001510190508282600001819052508082602001818152505050919050565b600061391b613be7565b826000015190508060200151816000015101836020015110915050919050565b613943613be7565b60008061394f84613911565b1561398b578360200151915061396482613aff565b90508183600001818152505080836020018181525050808201846020018181525050613990565b600080fd5b5050919050565b6000806000836020015114156139b057600091506139c2565b8260000151905060c0815160001a1091505b50919050565b60008060008060006139d986613997565b15156139e457600080fd5b85600001519150815160001a92506080831015613a075781945060019350613a41565b60b8831015613a255760018660200151039350600182019450613a40565b60b78303905080600187602001510303935060018183010194505b5b505050915091565b6000808260200151149050919050565b600081831015613a695781613a6b565b825b905092915050565b60008060008084602001511415613a8d5760009250613af8565b83600001519050805160001a91506080821015613aad5760009250613af8565b60b8821080613ac9575060c08210158015613ac8575060f882105b5b15613ad75760019250613af8565b60c0821015613aee57600160b78303019250613af8565b600160f783030192505b5050919050565b600080825160001a90506080811015613b1b5760019150613b93565b60b8811015613b3257600160808203019150613b92565b60c0811015613b5c5760b78103806020036101000a60018501510480820160010193505050613b91565b60f8811015613b7357600160c08203019150613b90565b60f78103806020036101000a600185015104808201600101935050505b5b5b5b50919050565b606060405190810160405280600073ffffffffffffffffffffffffffffffffffffffff168152602001600073ffffffffffffffffffffffffffffffffffffffff168152602001600081525090565b604080519081016040528060008152602001600081525090565b606060405190810160405280613c15613c22565b8152602001600081525090565b6040805190810160405280600081526020016000815250905600a165627a7a723058205d0863a3460aaae76416ca7c0ff14b3ee3114d7e0aa3a3b00eecb565ee0d6b170029608060405234801561001057600080fd5b50336000806101000a81548173ffffffffffffffffffffffffffffffffffffffff021916908373ffffffffffffffffffffffffffffffffffffffff160217905550602060405190810160405280600060ff168152506001906001610075929190610083565b5060006002819055506100fa565b8280548282559060005260206000209081019282156100c4579160200282015b828111156100c3578251829060ff169055916020019190600101906100a3565b5b5090506100d191906100d5565b5090565b6100f791905b808211156100f35760008160009055506001016100db565b5090565b90565b610732806101096000396000f30060806040526004361061006d576000357c0100000000000000000000000000000000000000000000000000000000900463ffffffff1680632dcdcd0c1461007257806390b5561d146100b3578063b07576ac146100e0578063bda1504b1461010b578063d6362e9714610136575b600080fd5b34801561007e57600080fd5b5061009d60048036038101908080359060200190929190505050610161565b6040518082815260200191505060405180910390f35b3480156100bf57600080fd5b506100de6004803603810190808035906020019092919050505061026b565b005b3480156100ec57600080fd5b506100f561031c565b6040518082815260200191505060405180910390f35b34801561011757600080fd5b50610120610441565b6040518082815260200191505060405180910390f35b34801561014257600080fd5b5061014b610447565b6040518082815260200191505060405180910390f35b600060025461018d600161017f60028661046890919063ffffffff16565b6104a390919063ffffffff16565b11156101ae576101a760028361046890919063ffffffff16565b9050610266565b60016101d760016101c960028661046890919063ffffffff16565b6104a390919063ffffffff16565b8154811015156101e357fe5b9060005260206000200154600161020460028561046890919063ffffffff16565b81548110151561021057fe5b9060005260206000200154101561023c5761023560028361046890919063ffffffff16565b9050610266565b610263600161025560028561046890919063ffffffff16565b6104a390919063ffffffff16565b90505b919050565b6000809054906101000a900473ffffffffffffffffffffffffffffffffffffffff1673ffffffffffffffffffffffffffffffffffffffff163373ffffffffffffffffffffffffffffffffffffffff161415156102c657600080fd5b600181908060018154018082558091505090600182039060005260206000200160009091929091909150555061030860016002546104a390919063ffffffff16565b6002819055506103196002546104c1565b50565b6000806000809054906101000a900473ffffffffffffffffffffffffffffffffffffffff1673ffffffffffffffffffffffffffffffffffffffff163373ffffffffffffffffffffffffffffffffffffffff1614151561037a57600080fd5b60018081548110151561038957fe5b9060005260206000200154905060016002548154811015156103a757fe5b90600052602060002001546001808154811015156103c157fe5b906000526020600020018190555060016002548154811015156103e057fe5b906000526020600020016000905561040460016002546105aa90919063ffffffff16565b60028190555061041460016105c3565b61042c600180805490506105aa90919063ffffffff16565b60018161043991906106b5565b508091505090565b60025481565b600060018081548110151561045857fe5b9060005260206000200154905090565b600080600084141561047d576000915061049c565b828402905082848281151561048e57fe5b0414151561049857fe5b8091505b5092915050565b60008082840190508381101515156104b757fe5b8091505092915050565b6000808291506001838154811015156104d657fe5b906000526020600020015490505b60016104fa60028561069a90919063ffffffff16565b81548110151561050657fe5b906000526020600020015481101561057d57600161052e60028561069a90919063ffffffff16565b81548110151561053a57fe5b906000526020600020015460018481548110151561055457fe5b906000526020600020018190555061057660028461069a90919063ffffffff16565b92506104e4565b81831415156105a5578060018481548110151561059657fe5b90600052602060002001819055505b505050565b60008282111515156105b857fe5b818303905092915050565b60008060008392506001848154811015156105da57fe5b906000526020600020015491506105f084610161565b90505b600254811115801561061d575060018181548110151561060f57fe5b906000526020600020015482115b1561066c5760018181548110151561063157fe5b906000526020600020015460018581548110151561064b57fe5b906000526020600020018190555080935061066584610161565b90506105f3565b8284141515610694578160018581548110151561068557fe5b90600052602060002001819055505b50505050565b60008082848115156106a857fe5b0490508091505092915050565b8154818355818111156106dc578183600052602060002091820191016106db91906106e1565b5b505050565b61070391905b808211156106ff5760008160009055506001016106e7565b5090565b905600a165627a7a7230582047e2bdad2ce08df60f828840402e11d8ee527d54428ddaf1e8ce836c79b7fb130029",
  "source": "pragma solidity ^0.4.24;\n\nimport '../Libraries/SafeMath.sol';\nimport '../Libraries/Math.sol';\nimport '../Libraries/RLP.sol';\nimport '../Libraries/Merkle.sol';\nimport '../Libraries/Validate.sol';\nimport '../DataStructures/PriorityQueue.sol';\nimport \"zeppelin-solidity/contracts/token/ERC20/ERC20.sol\";\nimport \"zeppelin-solidity/contracts/ownership/Ownable.sol\";\nimport \"zeppelin-solidity/contracts/token/ERC20/SafeERC20.sol\";\n\n/**\n * @title RootChain\n * @dev This contract secures a utxo payments plasma child chain to ethereum\n */\n\ncontract RootChain is Ownable {\n    using SafeMath for uint256;\n    using Merkle for bytes32;\n    using RLP for bytes;\n    using RLP for RLP.RLPItem;\n    using RLP for RLP.Iterator;\n    using SafeERC20 for ERC20;\n\n    /*\n     * Events\n     */\n    event Deposit(\n        address indexed depositor,\n        uint256 indexed blockNumber,\n        uint256 indexed depositBlock,\n        address token,\n        uint256 amount\n    );\n\n    event ExitStarted(\n        address indexed exitor,\n        uint256 indexed blockNumber,\n        uint256 indexed utxoPos,\n        address token,\n        uint256 amount\n    );\n\n    event ExitChallenged(\n        address indexed challenger,\n        uint256 indexed blockNumber,\n        uint256 indexed cUtxoPos,\n        uint256 eUtxoPos\n    );\n\n    event ExitFinalized(\n        address indexed exitor,\n        uint256 indexed blockNumber,\n        uint256 indexed utxoPos,\n        address token,\n        uint256 amount\n    );\n\n    /*\n     *  Storage\n     */\n    mapping(uint256 => childBlock) public childChain;\n    mapping(uint256 => exit) public exits;\n    PriorityQueue exitsQueue;\n    address public authority;\n    /* Block numbering scheme below is needed to prevent Ethereum reorg from invalidating blocks submitted\n       by operator. Two mechanisms must be in place to prevent chain from crashing:\n       1) don't mine tx that spent fresh deposits; if they are reorged from existence, block is invalid\n       2) disappearance of submit block does not affect operator's block numbering; hence tx submitted by\n       users that address that block stay valid.\n    */\n    mapping(uint256 => uint256) public childDepositBlock;\n    uint256 public currentChildBlock; /* ends with 00000 */\n    //uint256 public currentDepositBlock; /* takes values in range 1..99999 */\n    uint256 public childBlockInterval;\n    // uint256 public currentFeeExit;\n    // uint256 public lastParentBlock;\n\n    struct exit {\n        address owner;\n        ERC20 token;\n        uint256 amount;\n    }\n\n    struct childBlock {\n        // uint8 block_type;\n        bytes32 root;\n        uint256 created_at;\n    }\n\n    /*\n     *  Modifiers\n     */\n    modifier isAuthority() {\n        require(msg.sender == authority);\n        _;\n    }\n\n    /*\n     * Public Functions\n     */\n\n    constructor()\n        public\n    {\n        authority = msg.sender;\n        childBlockInterval = 100000;\n        currentChildBlock = childBlockInterval;\n        // childDepositBlock[currentChildBlock] = 1;\n        // currentDepositBlock = 1;\n        // currentFeeExit = 1;\n        exitsQueue = new PriorityQueue();\n        // lastParentBlock = block.number;\n    }\n\n    // @dev Allows assigning new authority\n    // @param _authority The new authority\n    function setAuthority(address _authority)\n        public\n        isAuthority\n    {   \n        authority = _authority;\n    }\n\n    // @dev Allows Plasma chain operator to submit block root\n    // @param root The root of a child chain block\n    function submitBlock(uint256 blkNum, bytes32 root)\n        public\n        isAuthority\n    {\n        // ensure finality on previous blocks before submitting another\n        // require(block.number >= lastParentBlock.add(6), \"presumed finality required\");\n        require(childChain[blkNum].root == 0, \"already submitted\");\n        require(currentChildBlock == blkNum, \"submit wrong block\");\n\n        childChain[blkNum] = childBlock({\n            root: root,\n            created_at: block.timestamp\n        });\n        currentChildBlock = currentChildBlock.add(childBlockInterval);\n        // childDepositBlock[currentChildBlock] = 1;\n        // currentDepositBlock = 1;\n        // lastParentBlock = block.number;\n    }\n    \n    // @dev Allows anyone to deposit funds into the Plasma chain\n    // txBytes Length 12 RLP encoding of Transaction excluding signatures\n    // Transaction encoding:\n    // [Blknum1, TxIndex1, Oindex1,\n    //  Blknum2, TxIndex2, Oindex2,\n    //  NewOwner, Denom1, NewOwner, Denom2, Fee, Token]\n    // @param blkNum The block number to deposit into\n    // @param txBytes The format of the transaction that'll become the deposit\n    function deposit(uint256 blkNum, ERC20 token, uint256 amount)\n        public\n        payable\n    {   \n        require(blkNum % childBlockInterval == 0, \"blockNumber has to end with 00000\");\n        require(blkNum >= currentChildBlock - childBlockInterval, \"blkNum is greater than or equal to current child block\");\n        if (childDepositBlock[blkNum] == 0){\n            childDepositBlock[blkNum] = 1;\n        }\n        uint256 cDepositBlock = childDepositBlock[blkNum];\n        require(cDepositBlock < childBlockInterval);\n\n        // var depositTx = txBytes.createDepositTx(12);\n        // uint256 amount = depositTx.amount;\n        // ERC20 token = ERC20(depositTx.token);\n        if (address(token) == address(0)){\n            require(msg.value == amount, \"mismatch in value\");\n        }else{\n            token.safeTransferFrom(msg.sender, address(this), amount);\n        }\n\n        // bytes32 root = keccak256(keccak256(txBytes), new bytes(130));\n        bytes32 root = keccak256(msg.sender, token, amount);\n        uint256 depositBlock = blkNum.add(cDepositBlock);\n        childChain[depositBlock] = childBlock({\n            root: root,\n            created_at: block.timestamp\n        });\n        childDepositBlock[blkNum] = childDepositBlock[blkNum].add(1);\n        //currentDepositBlock = currentDepositBlock.add(1);\n        emit Deposit(msg.sender, blkNum, depositBlock, token, amount);\n    } \n\n    function deposit(ERC20 token, uint256 amount)\n        public\n        payable\n    {   \n        deposit(getLastestSubmittedChildBlock(), token, amount);\n    }\n\n    // function startDepositExit(uint256 depositPos, ERC20 token, uint256 amount)\n    //     public\n    // {\n    //     uint256 depositBlock = depositPos / 1000000000;\n    //     // Makes sure that deposit position is actually a deposit\n    //     require(depositBlock % childBlockInterval != 0);\n    //     bytes32 root = childChain[depositBlock].root;\n    //     bytes32 depositHash = keccak256(msg.sender, token, amount);\n    //     require(root == depositHash);\n    //     addExitToQueue(depositPos, msg.sender, token, amount, childChain[depositBlock].created_at);\n    // }\n\n    // function startFeeExit(ERC20 token, uint256 amount)\n    //     public\n    //     isAuthority\n    //     returns (uint256)\n    // {\n    //     addExitToQueue(currentFeeExit, msg.sender, token, amount, block.timestamp + 1);\n    //     currentFeeExit = currentFeeExit.add(1);\n    // }\n\n    // @dev Starts to exit a specified utxo\n    // @param utxoPos The position of the exiting utxo in the format of blkNum * 1000000000 + index * 10000 + oIndex\n    // @param txBytes The transaction being exited in RLP bytes format\n    // @param proof Proof of the exiting transactions inclusion for the block specified by utxoPos\n    // @param sigs Both transaction signatures and confirmations signatures used to verify that the exiting transaction has been confirmed\n    event Debug(address sender, address exitor);\n    // event LDebug(bytes32 confirmationHash, bytes confSig1, bytes txBytes, bytes32 root, address owner1, address owner2);\n    \n    function startExit(uint256 utxoPos, bytes txBytes, bytes proof, bytes sigs)\n        public returns (uint256 eUtxoPos)\n    {\n        uint256 blkNum = utxoPos / 1000000000;\n        uint256 txIndex = (utxoPos % 1000000000) / 10000;\n        uint256 oIndex = utxoPos - blkNum * 1000000000 - txIndex * 10000; \n        var txList = txBytes.toRLPItem().toList();\n        require(txList.length == 12);\n\n        address exitor = txList[6+oIndex*2].toAddress();\n        address token = txList[11].toAddress();\n        uint256 amount = txList[7+oIndex*2].isEmpty() ? 0 : txList[7+oIndex*2].toUint();\n        uint256 inputCount = (txList[0].isEmpty() ? 0 : txList[0].toUint()) * (txList[3].isEmpty() ? 0 :txList[3].toUint());\n        emit Debug(msg.sender, exitor);\n        require(msg.sender == exitor || msg.sender == owner, \"sender and exitor are not the same or sender is not the owner\");\n\n        bytes32 merkleHash = keccak256(keccak256(txBytes), ByteUtils.slice(sigs, 0, 130));\n        // bytes memory sig1 = ByteUtils.slice(sigs, 0, 65);\n        // bytes memory sig2 = ByteUtils.slice(sigs, 65, 65);\n        // bytes memory confSig1 = ByteUtils.slice(sigs, 130, 65);\n        // bytes32 confirmationHash = keccak256(keccak256(txBytes), childChain[blkNum].root);\n        // bytes memory prefix = \"\\x19Ethereum Signed Message:\\n32\";\n        // address owner1 = ECRecovery.recover(keccak256(prefix, keccak256(txBytes)), sig1);\n        // address owner2 = ECRecovery.recover(keccak256(prefix, confirmationHash), confSig1);\n        // emit LDebug(confirmationHash, confSig1, txBytes, childChain[blkNum].root, owner1, owner2);\n\n        require(Validate.checkSigs(keccak256(txBytes), childChain[blkNum].root, inputCount, sigs, owner), \"signature is invalid\");\n        require(merkleHash.checkMembership(childChain[blkNum].root, proof), \"proof is invalid\");\n        addExitToQueue(utxoPos, exitor, ERC20(token), amount, childChain[blkNum].created_at);\n        return utxoPos;\n    }\n\n    // Priority is a given utxos position in the exit priority queue\n    function addExitToQueue(uint256 utxoPos, address exitor, ERC20 token, uint256 amount, uint256 created_at)\n        private\n    {\n        // uint256 blkNum = utxoPos / 1000000000;\n        uint256 exitable_at = Math.max(created_at + 2 weeks, block.timestamp + 1 weeks);\n        uint256 priority = exitable_at << 128 | utxoPos;\n        require(amount > 0);\n        require(exits[utxoPos].amount == 0);\n        exitsQueue.insert(priority);\n        exits[utxoPos] = exit({\n            owner: exitor,\n            token: token,\n            amount: amount\n        });\n        emit ExitStarted(msg.sender, getLastestSubmittedChildBlock(), utxoPos, token, amount);\n    }\n\n    // @dev Allows anyone to challenge an exiting transaction by submitting proof of a double spend on the child chain\n    // @param cUtxoPos The position of the challenging utxo\n    // @param eUtxoPos The position of the exiting utxo\n    // @param txBytes The challenging transaction in bytes RLP form\n    // @param proof Proof of inclusion for the transaction used to challenge\n    // @param sigs Signatures for the transaction used to challenge\n    // @param confirmationSig The confirmation signature for the transaction used to challenge\n    function challengeExit(uint256 cUtxoPos, uint256 eUtxoPos, bytes txBytes, bytes proof, bytes sigs, bytes confirmationSig)\n        public returns (bool success)\n    {\n        // require(cUtxoPos != eUtxoPos, \"eUtxoPos and cUtxoPos should not be the same\");\n\n        uint256 txIndex = (cUtxoPos % 1000000000) / 10000;\n        bytes32 root = childChain[cUtxoPos / 1000000000].root;\n        var txHash = keccak256(txBytes);\n        var confirmationHash = keccak256(txHash, root);\n        var merkleHash = keccak256(txHash, ByteUtils.slice(sigs, 0, 130));\n\n\n        require(exits[eUtxoPos].token == txBytes.toRLPItem().toList()[11].toAddress(), \"tokens are not the same\");\n        bytes memory prefix = \"\\x19Ethereum Signed Message:\\n32\";\n        \n        require(exits[eUtxoPos].owner == ECRecovery.recover(keccak256(prefix, confirmationHash), confirmationSig), \"this tx is not spent by the owner\");\n        require(merkleHash.checkMembership(root, proof), \"this tx is not include in the submitted block\");\n        // Clear as much as possible from succesful challenge\n        if(isExitSpent(txBytes, eUtxoPos)){\n            delete exits[eUtxoPos];\n            emit ExitChallenged(msg.sender, getLastestSubmittedChildBlock(), cUtxoPos, eUtxoPos);\n            return true;\n        }\n        return false;\n    }\n\n    function isExitSpent(bytes txBytes, uint256 utxoPos)\n        view\n        internal\n        returns (bool spent)\n    {\n        uint256 cblkNum = utxoPos / 1000000000;\n        uint256 ctxIndex = (utxoPos % 1000000000) / 10000;\n        uint256 coIndex = utxoPos - cblkNum * 1000000000 - ctxIndex * 10000; \n        \n        var txList = txBytes.toRLPItem().toList();\n        require(txList.length == 12);\n        \n        // Check two inputs individually if it spent the given withdrawal.\n        for (uint256 i = 0; i < 2; i++) {\n            if (!txList[3 * i].isEmpty()) {\n                uint256 blkNum = txList[3 * i].toUint();\n                // RLP will encode integer 0 to 0x80 just like empty content...\n                uint256 txIndex = txList[3 * i + 1].isEmpty() ? 0 : txList[3 * i + 1].toUint();\n                uint256 oIndex = txList[3 * i + 2].isEmpty() ? 0 : txList[3 * i + 2].toUint();\n\n                if (cblkNum == blkNum &&\n                    ctxIndex == txIndex &&\n                    coIndex == oIndex) {\n                    return true;\n                }\n            }\n        }\n        return false;\n    }\n\n    // @dev Loops through the priority queue of exits, settling the ones whose challenge\n    // @dev challenge period has ended\n    function finalizeExits()\n        public\n    {\n        uint256 utxoPos;\n        uint256 exitable_at;\n        (utxoPos, exitable_at) = getNextExit();\n        exit memory currentExit = exits[utxoPos];\n        while (exitable_at < block.timestamp && exitsQueue.currentSize() > 0) {\n            currentExit = exits[utxoPos];\n            ERC20 token = currentExit.token;\n            if(address(token) == address(0)){\n                currentExit.owner.transfer(currentExit.amount);\n            }else{\n                token.safeTransfer(currentExit.owner, currentExit.amount);\n            }\n            exitsQueue.delMin();\n            delete exits[utxoPos];\n\n            emit ExitFinalized(currentExit.owner, getLastestSubmittedChildBlock(), utxoPos, token, currentExit.amount);\n            if (exitsQueue.currentSize() > 0) {\n                (utxoPos, exitable_at) = getNextExit();\n            } else {\n                return;\n            }\n        }\n    }\n    \n    /* \n     *  Constant functions\n     */\n    function getChildChain(uint256 blockNumber)\n        public\n        view\n        returns (bytes32, uint256)\n    {\n        return (childChain[blockNumber].root, childChain[blockNumber].created_at);\n    }\n\n    function getLastestSubmittedChildBlock()\n        public\n        view\n        returns (uint256)\n    {\n        return currentChildBlock.sub(childBlockInterval);\n    }\n\n    function getCurrentChildBlock()\n        public\n        view\n        returns (uint256)\n    {\n        return currentChildBlock;\n    }\n\n    // function getDepositBlock()\n    //     public\n    //     view\n    //     returns (uint256)\n    // {\n    //     return getLastestSubmittedChildBlock().add(currentDepositBlock);\n    // }\n\n    function getExit(uint256 utxoPos)\n        public\n        view\n        returns (address, uint256)\n    {\n        return (exits[utxoPos].owner, exits[utxoPos].amount);\n    }\n\n    function getNextExit()\n        public\n        view\n        returns (uint256, uint256)\n    {\n        uint256 priority = exitsQueue.getMin();\n        uint256 utxoPos = uint256(uint128(priority));\n        uint256 exitable_at = priority >> 128;\n        return (utxoPos, exitable_at);\n    }\n\n    function isFinalizable()\n        public\n        view\n        returns (bool)\n    {\n        uint256 utxoPos;\n        uint256 exitable_at;\n        (utxoPos, exitable_at) = getNextExit();\n        return exitable_at < block.timestamp && exitsQueue.currentSize() > 0;\n    }\n}\n",
  "sourcePath": "/Users/surat/git/ching/plasma/contracts/omisego/RootChain/RootChain.sol",
  "compiler": {
    "name": "solc",
    "version": "0.4.24+commit.e67f0147.Emscripten.clang"
  },
  "schemaVersion": "2.0.1",
  "updatedAt": "2018-08-20T14:51:01.486Z"
}